{
    "contractName": "Basic",
    "abi": [
        {
            "inputs": [],
            "name": "a",
            "outputs": [
                {
                    "internalType": "uint256",
                    "name": "",
                    "type": "uint256"
                }
            ],
            "stateMutability": "view",
            "type": "function"
        },
        {
            "inputs": [
                {
                    "internalType": "uint256",
                    "name": "num",
                    "type": "uint256"
                }
            ],
            "name": "changenumber",
            "outputs": [],
            "stateMutability": "nonpayable",
            "type": "function"
        },
        {
            "inputs": [],
            "name": "getnumber",
            "outputs": [
                {
                    "internalType": "uint256",
                    "name": "",
                    "type": "uint256"
                }
            ],
            "stateMutability": "view",
            "type": "function"
        }
    ],
    "bytecode": "608060405234801561001057600080fd5b5060c28061001f6000396000f3fe6080604052348015600f57600080fd5b5060043610603c5760003560e01c80630dbe671f146041578063486b721714605b57806355583404146062575b600080fd5b604960005481565b60405190815260200160405180910390f35b6000546049565b6072606d3660046074565b600055565b005b600060208284031215608557600080fd5b503591905056fea26469706673582212200b0ab0fcddbf55b80064873a4b6ba923246051bd577a006a8f5c8c2fb91f84f364736f6c63430008090033",
    "sourcePath": "f:/Blockchain/First.sol",
    "compiler": {
        "name": "solc",
        "version": "0.8.9+commit.e5eed63a"
    },
    "functionHashes": {
        "a()": "0dbe671f",
        "changenumber(uint256)": "55583404",
        "getnumber()": "486b7217"
    },
    "gasEstimates": {
        "creation": {
            "codeDepositCost": "38800",
            "executionCost": "93",
            "totalCost": "38893"
        },
        "external": {
            "a()": "2261",
            "changenumber(uint256)": "22334",
            "getnumber()": "2280"
        }
    }
}